:100000000C9470000C9498000C9498000C94980038
:100010000C9498000C9498000C9498000C94B008E0
:100020000C9498000C9498000C9498000C948908F7
:100030000C9498000C9498000C9498000C949800E0
:100040000C948E120C9498000C94C30E0C94F50E24
:100050000C9498000C9498000C9498000C949800C0
:100060000C9498000C949800B1037803B5037C03BA
:100070007F038203860389038D0390039303960312
:1000800099039D03A103A503A803AB030000000887
:10009000000201000003040700000000000000004F
:1000A000010204081020408001020408102001020F
:1000B00004081020040404040404040402020202DC
:1000C00002020303030303030000000025002800CD
:1000D0002B0000000000240027002A003D124C12D3
:1000E00011241FBECFEFD8E0DEBFCDBF11E0A0E0EE
:1000F000B1E0EEE6FDE202C005900D92A632B10736
:10010000D9F721E0A6E2B1E001C01D92AF3FB207EE
:10011000E1F710E0C0E7D0E004C02197FE010E94A3
:10012000AF16CE36D107C9F70E942E120C94B51621
:100130000C9400000C944513CF93DF93EC01842FB3
:100140001E821F821886E4E0F0E0FA87E98791E0DA
:100150009B87488359833B832A8363307105C1F0B1
:1001600038F46130710561F06230710561F013C0DF
:100170006530710541F020F06630710549F00BC023
:1001800028E030E002C02AE030E03D832C8305C047
:100190002CE030E0FACF1D821C8261E00E94C61381
:1001A00061E08A810E94C61361E088810E94021486
:1001B00061E08A810E9402140E94E60C8CB58F7D5A
:1001C0008CBD8CB5837F8CBD8985DF91CF910C94DC
:1001D000F411FC0166830895FC0160870895FC0119
:1001E0006387862F08956130710519F4FC01178229
:1001F00006C06230710529F421E0FC01278381E00B
:10020000089580E008956730710540F4FC0172871D
:100210006187862F0E94F41181E0089580E008959F
:10022000CF93DF93EC018885882311F02A9804C0CE
:1002300060E088810E9402142F8181E0822790E093
:100240009C01322F22273295330F307E9E81892FD9
:1002500090E090E4899F902D88271124822B932B86
:10026000892F0E94ED1180E00E94ED11888588237E
:1002700021F02A9ADF91CF91089561E08881DF9182
:10028000CF910C940214FF920F931F93CF93DF939F
:100290008C01EB01F42EFC01848195818C30910559
:1002A00011F4DF7008C08A30910511F4D37003C0D7
:1002B000089709F4DD27F8018085882311F02A9832
:1002C00005C060E0F80180810E940214F8012781D6
:1002D00081E0282730E0A901542F44275295550F7B
:1002E000507E9681292F30E0C90190E4899F902D9E
:1002F000882711249A01282B392B80E090E09F2D2C
:10030000979599279795822B932B906144815581DE
:100310002CE030E0241B350B02C0CC0FDD1F2A95EA
:10032000E2F7C82BD92B8D2F0E94ED118C2F0E9444
:10033000ED11F8018085882339F02A9ADF91CF9159
:100340001F910F91FF90089561E0F8018081DF9186
:10035000CF911F910F91FF900C94021440E050E058
:100360000C9443010C94AE0141E050E00C94430125
:10037000CF93DF93FC018281938197FD11C020858B
:10038000222321F05F9800005F9A0AC0EF0160E02D
:100390000E94021461E08A81DF91CF910C940214D3
:1003A000DF91CF9108950F931F93CF93DF93EC01CB
:1003B0008A0140E050E00E94430141E050E0B80172
:1003C000CE010E9443018B85882339F0CE01DF9155
:1003D000CF911F910F910C94B801DF91CF911F9194
:1003E0000F910895CF92DF92EF92FF920F931F9398
:1003F000CF93DF93E901811106C0188219821A8216
:100400001B821C821DC06A017B010E94D8122881B8
:10041000211106C021E0288369837A838B839C8322
:1004200009811A812B813C81DC01CB01801B910B5E
:10043000A20BB30B21E08C159D05AE05BF0508F49A
:1004400020E0822FDF91CF911F910F91FF90EF90CD
:10045000DF90CF9008950F931F93FB01BA01A9017C
:100460009801892B29F081E0EF2B19F080E001C081
:1004700081E01F910F910C94F201CF93DF93EC0177
:1004800080E591E00E94031260E088890E940214D6
:1004900080EC0E94ED1161E088890E9402140E94A4
:1004A0001D126AE070E080E090E0DF91CF910C9443
:1004B00009131F93CF93DF93EC01162F80E591E092
:1004C0000E94031260E088890E94021483E00E9467
:1004D000ED11812F0E94ED1180E00E94ED11182F87
:1004E00061E088890E9402140E941D12812FDF9111
:1004F000CF911F910895DF92EF92FF920F931F9378
:10050000CF93DF937C01162FD42EC52FD22F80E5F9
:1005100091E00E94031260E0F70180890E940214BA
:1005200083E00E94ED11812F0E94ED110D2D1C2FF3
:10053000C0E0CD1751F0C83041F080E00E94ED11CD
:10054000F80181938F01CF5FF4CF61E0F7018089DB
:100550000E940214DF91CF911F910F91FF90EF90B5
:10056000DF900C941D120F931F93CF93DF93EC0138
:10057000062F142F80E591E00E94031260E0888925
:100580000E94021482E00E94ED11802F0E94ED1162
:10059000812F0E94ED1161E088890E940214DF9191
:1005A000CF911F910F910C941D12DF92EF92FF9249
:1005B0000F931F93CF93DF938C01C62FD42EE52E7C
:1005C000F22E80E591E00E94031260E0F80180893C
:1005D0000E94021482E00E94ED118C2F0E94ED1106
:1005E000CD2DDE2DCE018F0D911D7C01EC16FD066B
:1005F00021F089910E94ED11F9CF61E0F801808925
:100600000E940214DF91CF911F910F91FF90EF9004
:10061000DF900C941D12FF920F931F93CF93DF93E3
:10062000EC01F62E042F122F80E591E00E940312B8
:1006300060E088890E94021485E00E94ED118F2DF0
:100640000E94ED11802F0E94ED11812F0E94ED116B
:1006500061E088890E940214DF91CF911F910F9170
:10066000FF900C941D121F93CF93DF93EC0180E554
:1006700091E00E94031260E088890E94021480EADF
:100680000E94ED1180E00E94ED11182F61E0888931
:100690000E9402140E941D12812FDF91CF911F91A1
:1006A00008950F931F93CF938C01C62F262F40EEF2
:1006B0006FE00E940B036FE0C8010E945902982F5F
:1006C000907E81E09C1301C080E0CF911F910F913B
:1006D00008950F931F93CF93DF93462F50E0FA01B5
:1006E0003197E231F105D8F5EC5CFF4F0C94AF1671
:1006F000C7E8DFEF4FE13CC0C7E0DAEB38C0C5E840
:10070000D1EF35C0C7E0DEEB49E032C0C7E8DFEF2C
:1007100002C0C7E8DAEF47E02BC0C7E8DFEF0BC045
:10072000C7E0DEEB08C0C7E0DDEA05C0C7E8DAEFE6
:1007300002C0C6E8D0EF43E01BC0C7E8DAEF41E0F3
:1007400017C0C5E8D1EF41E413C0C6E8D0EF05C03B
:10075000C4E0D0EA02C0C2E8D0ED40E009C081E0C8
:1007600016C0C7E8DFEF4FE303C0C7E8DFEF4FE095
:100770008C016AE20E94B3024D2F69E2C8010E9417
:10078000B3024C2F68E2C8010E94B30280E0DF91FF
:10079000CF911F910F9108950F931F93CF938C01C9
:1007A000C0E340E06C2FC8010E94B30260E16C0F0F
:1007B00040E0C8010E94B30260E26C0F40E0C80153
:1007C0000E94B302CF5FCE3361F740E060E6C8011C
:1007D0000E94B30240E060E7C801CF911F910F91E2
:1007E0000C94B3020F931F93CF93DF93EC01062F6A
:1007F0000E943D0260E8CE010E945103182F6AE07A
:1008000070E080E090E011110CC00E940913602F8D
:10081000CE010E946903882339F06AE070E080E02D
:1008200090E00E94091328C06AE070E080E090E048
:100830000E940913CE010E94CC0343E06BE2CE017B
:100840000E94B30224E044E660E6CE010E940B035E
:1008500020E040E660E7CE010E940B0360E0CE019D
:100860000E945103C82F8823C1F26AE070E080E043
:1008700090E00E9409131C2F812FDF91CF911F91CF
:100880000F9108950F931F93CF93DF9300D000D063
:10089000CDB7DEB74130B1F40C831B838901222729
:1008A0003327502F5C71402F437078E0579F400DE5
:1008B000112448604A8355E0169507955A95E1F74B
:1008C00009830DC0A80123E0569547952A95E1F7C5
:1008D00049830295000F007E0A831C821B8224E05C
:1008E000AE014F5F5F4F0E94D5020F900F900F90A7
:1008F0000F90DF91CF911F910F910895EF92FF928A
:100900000F931F93CF93DF9300D000D0CDB7DEB706
:100910007A018901FA011082F90110821182128292
:10092000138224E0AE014F5F5F4F0E947B022A8159
:100930003981822F90E065E0959587956A95E1F77A
:10094000F8E03F9F800D911D1124092E000CAA0B89
:10095000BB0BF80180839183A283B38323FF25C05F
:1009600032E0880F991FAA1FBB1F3A95D1F7237059
:10097000820F911DA11DB11DBA2FA92F982F882775
:100980002B81820F911DA11DB11DBA2FA92F982F68
:1009900088272C81820F911DA11DB11D8083918319
:1009A000A283B38381E0F70180830F900F900F90B3
:1009B0000F90DF91CF911F910F91FF90EF900895CD
:1009C000FF920F931F93CF93DF93EC01F62E8A01D2
:1009D000AC014A5F5F4F65E06F0D2D810E94D5022B
:1009E0000130110519F48D8180648D8364E06F0DF1
:1009F0004D81CE010E94B30209811A812B813C8175
:100A000048816F2DCE010E944204DF91CF911F914A
:100A10000F91FF9008950F931F93CF93DF93EC01F5
:100A2000162F9C012F5F3F4FAC010E947E046FEF99
:100A3000610FCE010E945902082F64E0610FCE01C0
:100A40000E94590203FB002700F90E87282F2F7000
:100A50002D83AE014A5F5F4F65E0610FCE01DF91EC
:100A6000CF911F910F910C947B02615028E048E0D8
:100A70000C940B038F929F92AF92BF92CF92DF9212
:100A8000EF92FF921F93CF93DF9300D01F92CDB7C9
:100A9000DEB74C016B018091010190910201A091A0
:100AA000030189839A83AB83FB011082CE010196F7
:100AB0007C015E0194E0A90EB11CF70111917F0148
:100AC000612FC4010E945902982F987083FD04C0C1
:100AD0001F5FF601108304C0EA14FB0471F792E073
:100AE000892F0F900F900F90DF91CF911F91FF9062
:100AF000EF90DF90CF90BF90AF909F908F90089530
:100B0000FC01608B08951F93CF93DF93EC01162FA8
:100B100061E088890E94C61361E088890E940214FE
:100B20000E94E60C612FCE010E94F20391E0811138
:100B300001C090E0892FDF91CF911F9108958F928E
:100B40009F92AF92BF92DF92EF92FF920F931F930B
:100B5000CF93DF937C01D62ED42F480159016AE050
:100B600070E080E090E00E94091360E8C7010E94F5
:100B70005103C82F882329F06AE070E080E090E0FC
:100B80001CC0D11005C0950184014D2F60E207C043
:100B900081E0D81207C0950184014D2F64E2C7019E
:100BA0000E94420460E0C7010E945103C82F6AE01E
:100BB00070E080E090E0CC2321F00E9409138C2F9C
:100BC00003C00E94091380E0DF91CF911F910F9124
:100BD000FF90EF90DF90BF90AF909F908F9008951F
:100BE0008F929F92AF92BF92DF92EF92FF920F93FC
:100BF0001F93CF93DF937C01D62FD42E4801590148
:100C00006AE070E080E090E00E94091360E8C701AC
:100C10000E945103C82F882329F06AE070E080E029
:100C200090E037C0D230C9F048F4DD2389F0D130EC
:100C300029F5950184014D2D64E01DC0D430B9F033
:100C400088F0D530D9F4950184014D2D68E113C0A9
:100C5000950184014D2D60E00EC0950184014D2D5C
:100C600068E009C0950184014D2D60E104C0950143
:100C700084014D2D64E1C7010E94420460E0C70178
:100C80000E945103C82F6AE070E080E090E0CC231E
:100C900021F00E9409138C2F03C00E94091380E0E9
:100CA000DF91CF911F910F91FF90EF90DF90BF9058
:100CB000AF909F908F900895CF92DF920F931F93E4
:100CC000FC0120834183528363837483093008F0DD
:100CD00008E005833696D60110E0CD018C199D09F8
:100CE000801791071CF48D918193F7CF80E01F91BD
:100CF0000F91DF90CF900895EF92FF920F931F9383
:100D0000FC0120834183528363837483093008F09C
:100D100008E005833696D70110E0CD018E199F09B2
:100D2000801791071CF48D918193F7CF80E01F917C
:100D30000F91FF90EF900895FC01118212821382AF
:100D40001482158210821686178680E00895CF924D
:100D5000DF92EF92FF920F931F93CF93DF931F9237
:100D6000CDB7DEB77C016B0100E010E0BE016F5F24
:100D70007F4FC7010E943A050F5F1F4F823021F459
:100D80000233110599F720C002331105E9F0A601DD
:100D90006981C7010E94E0046981C7010E9435058D
:100DA00000E010E00F5F1F4F69816150C7010E9492
:100DB000590283FF04C002331105A1F707C00233B3
:100DC000110521F080E003C086E001C087E00F90AC
:100DD000DF91CF911F910F91FF90EF90DF90CF9017
:100DE0000895AF92BF92CF92DF92EF920F93CF937D
:100DF0005C01C02F0E2DEC2E0E945C066C2F70E063
:100E0000C501CF910F91EF90DF90CF90BF90AF9041
:100E10000C94A706EF92FF920F93CF93DF93EC0110
:100E20000E947C0660E070E0CE01DF91CF910F91CF
:100E3000FF90EF900C94A706CF93DF93EC010E94F4
:100E4000330380FF07C061E6CE010E940B0520E05E
:100E500041E008C081FF0CC061E7CE010E940B0594
:100E600020E042E06CE2CE010E940B0380E001C072
:100E700084E0DF91CF910895EF92FF920F931F933B
:100E8000CF93DF93EC018B017A010E941C07811143
:100E900011C09D81F8019083DE011696F7012D8126
:100EA00030E0AF014E195F09421753072CF49D91B2
:100EB0009193F5CFF8011082DF91CF911F910F919F
:100EC000FF90EF900895CF92DF92EF92FF920F93F1
:100ED0001F93CF93DF93EC016B018A0179010E948C
:100EE0001C0781111EC09D81F801908349815A81A0
:100EF0006B817C81F6014083518362837383DE01C1
:100F00001696F70120E030E04D8150E024173507B8
:100F100054F42830310539F09D9191932F5F3F4F64
:100F2000F3CFF8011082DF91CF911F910F91FF90C5
:100F3000EF90DF90CF9008950E943303837011F4F7
:100F400084E0089583E008956DE20E945902887F4D
:100F500009F085E00895FC016181728183819481AB
:100F60000895FC0186850895FC0180810895CF9342
:100F7000DF93EC0160E1CE010E948305882339F004
:100F800062E370E080E090E00E940913F3CFDF910C
:100F9000CF910895CF93DF9361157105F1F0EB01C7
:100FA00021E1FB0111922A95E9F7F8949B01275F53
:100FB0003F4FAB014C5F5F4F0E946307811109C037
:100FC0000E94D8126D837E838F83988780E090E0A3
:100FD00002C081E090E0789402C082E090E0DF916E
:100FE000CF9108954F925F926F927F928F929F92CE
:100FF000AF92BF92CF92DF92EF92FF920F931F9327
:10100000CF93DF9300D000D000D0CDB7DEB79E8362
:101010008D83042F122F6B01770FEE08FF08412CF0
:10102000512C3201812C912C54014C145D046E041E
:101030007F048CF4802F0E948013092E000CAA0BD1
:10104000BB0B880E991EAA1EBB1E8FEF481A580AAA
:10105000680A780AEACFC501B401A70196010E9487
:101060009016DA01C90132E0880F991FAA1FBB1F31
:101070003A95D1F789839A83AB83BC83412C512C59
:101080003201812C912C54014C145D046E047F04B8
:101090008CF4812F0E948013092E000CAA0BBB0B2D
:1010A000880E991EAA1EBB1E9FEF491A590A690A8B
:1010B000790AEACF69817A818D819E810E94AE0191
:1010C000C501B401A70196010E949016CA01B90199
:1010D00022E0660F771F881F991F2A95D1F78D810F
:1010E0009E8126960FB6F894DEBF0FBECDBFDF916E
:1010F000CF911F910F91FF90EF90DF90CF90BF9015
:10110000AF909F908F907F906F905F904F900C94D6
:10111000B4011F920F920FB60F9211242F933F9399
:101120004F935F936F937F938F939F93AF93BF93EF
:10113000EF93FF93E0912801F09129010995FF9128
:10114000EF91BF91AF919F918F917F916F915F913F
:101150004F913F912F910F900FBE0F901F901895B8
:101160001F920F920FB60F9211242F933F934F931C
:101170005F936F937F938F939F93AF93BF93EF93FF
:10118000FF93E0912601F09127010995FF91EF91DE
:10119000BF91AF919F918F917F916F915F914F918F
:1011A0003F912F910F900FBE0F901F901895CF92E7
:1011B000DF92EF92FF92CF93DF936B017C01EA0104
:1011C000F894109280001092810010928500109285
:1011D000840020E030E040E857E40E94FC159B01C9
:1011E000AC0160E074E284E79BE40E94A4140E94D6
:1011F0001615613021E072078105910550F080914C
:10120000810085608093810060E074E080E090E080
:1012100036C0613471058105910550F080918100DF
:1012200084608093810060E071E080E090E027C0FE
:10123000693071058105910550F0809181008360CE
:101240008093810060E470E080E090E018C062303C
:1012500071058105910550F0809181008260809335
:10126000810068E070E080E090E009C0809181003A
:1012700081608093810061E070E080E090E00E94F6
:101280004515A70196010E94FC159B01AC0160E089
:1012900074E284E79BE40E94A41420E030E040E87C
:1012A0005FE30E9432140E9416156115710521E05A
:1012B0008207910550F4611571058105910549F486
:1012C00061E070E080E090E004C06FEF7FEF80E0CD
:1012D00090E070938900609388008091810088601D
:1012E0008093810080916F00826080936F00D09323
:1012F0002901C09328017894DF91CF91FF90EF905E
:10130000DF90CF900895CF92DF92EF92FF92CF932C
:10131000DF936B017C01EA01F8941092B000109207
:10132000B1001092B20020E030E040E853E40E94A7
:10133000FC159B01AC0160E074E284E79BE40E9431
:10134000A4140E941615613021E0720781059105F1
:1013500050F08091B10087608093B10060E074E04C
:1013600080E090E054C0613871058105910550F02E
:101370008091B10086608093B10060E071E080E010
:1013800090E045C0613471058105910550F0809170
:10139000B10085608093B10060E870E080E090E08B
:1013A00036C0613271058105910550F08091B10020
:1013B00084608093B10060E470E080E090E027C03A
:1013C000693071058105910550F08091B10083600D
:1013D0008093B10060E270E080E090E018C062307D
:1013E00071058105910550F08091B1008260809374
:1013F000B10068E070E080E090E009C08091B10049
:1014000081608093B10061E070E080E090E00E9434
:101410004515A70196010E94FC159B01AC0160E0F7
:1014200074E284E79BE40E94A41420E030E040E8EA
:101430005FE30E9432140E9416156F3F710581050B
:10144000910509F050F4611571058105910549F484
:1014500061E070E080E090E004C06FEF70E080E059
:1014600090E06093B3008091B10082608093B100FE
:1014700080917000826080937000D0932701C093A8
:1014800026017894DF91CF91FF90EF90DF90CF907D
:101490000895EAE2F1E0108211821282089561E07B
:1014A00089E00E94C61360E08EE00E94C61360E0EF
:1014B0008FE00E94C61360E080E10E94C61360E0E6
:1014C00081E10E94C61361E086E00E94C613F89491
:1014D00061E089E00E94021460E086E00E9402144C
:1014E000789408950F931F938DE291E00E94B707BF
:1014F00000EF17E020E030E040E060E08DE291E0B6
:101500000E949F0500E910E020E030E040E060E04C
:101510008DE291E00E94F00500EA10E020E030E06A
:1015200040E061E08DE291E00E94F0050FEF17E0EE
:1015300020E030E040E061E08DE291E00E949F0514
:1015400001E910E020E030E041E062E08DE291E06E
:101550000E94F0051F910F91089545EB5AE060E05D
:1015600070E088E492E40C94D708EF92FF920F9316
:10157000CF93DF93CDB7DEB728970FB6F894DEBFD1
:101580000FBECDBF85E089838CEC8A83EAE2F1E06F
:1015900080818B8381818C8382818D83F894CE01BD
:1015A00001967C0108E020E043E950E060E070E053
:1015B0008DE291E00E940A07789428960FB6F8947D
:1015C000DEBF0FBECDBFDF91CF910F91FF90EF90A7
:1015D0000895EF92FF920F93CF93DF93CDB7DEB7CD
:1015E00028970FB6F894DEBF0FBECDBF85E0898384
:1015F0008CEC8A8382E090E0A0E0B0E08B839C8357
:10160000AD83BE8380912C018F83F894CE01019627
:101610007C0108E020E04FEA50E060E070E08DE2FD
:1016200091E00E940A07789428960FB6F894DEBFDE
:101630000FBECDBFDF91CF910F91FF90EF90089536
:101640008F929F92AF92BF92CF92DF92EF92FF92D2
:10165000CF93DF93CDB7DEB761970FB6F894DEBFB7
:101660000FBECDBFBE016F5F7F4F8DE291E00E9444
:10167000CA07892B09F0CBC08A85853009F0C7C01D
:101680008B858C3C09F0C3C089819A81AB81BC8178
:1016900080399105A105B10519F40E94470CB7C026
:1016A00081399105A105B10519F40E94610CAFC003
:1016B00082399105A105B10509F0A3C0CC84DD8470
:1016C000EE84FF8420E030E0A901C701B6010E944A
:1016D0009F1487FD11C020E030E040E85FE3C701C0
:1016E000B6010E94F715181654F4C12CD12C40E80D
:1016F000E42E4FE3F42E03C0C12CD12C76012EEC46
:1017000037EF43EF5FE3C701B6010E94FC152EEFF0
:1017100034ED48EB5EE30E9433144B015C012EEF85
:1017200034ED48EB5EE30E949F1487FD13C027E869
:1017300036E141E150E4C501B4010E94F7151816E5
:101740008CF427E8822E26E1922E21E1A22E20E4BD
:10175000B22E08C03EEF832E34ED932E38EBA32E2D
:101760003EE3B32E22E835E943E750E4C701B60172
:101770000E94FC1520E138E549E35FE30E94331441
:101780006B017C0120E138E549E35FE30E949F148F
:1017900087FD13C023EC35EF40E950E4C701B601E3
:1017A0000E94F71518168CF483ECC82E85EFD82EFE
:1017B00080E9E82E80E4F82E08C090E1C92E98E573
:1017C000D92E99E3E92E9FE3F92E2DEC3CEC4CE465
:1017D00054E4C501B4010E94FC150E9416154B018A
:1017E0005C012DEC3CEC4CE454E4C701B6010E94D2
:1017F000FC150E941615DC01CB01B4010E94180CE7
:1018000006C08F3A9105A105B10509F44ECF619646
:101810000FB6F894DEBF0FBECDBFDF91CF91FF9022
:10182000EF90DF90CF90BF90AF909F908F900895F2
:10183000CF93DF93EB0120912A01222329F18D33ED
:1018400022E0920740F0BC016F318DE0780728F06C
:101850006EE17DE002C06DE372E0C53FD10538F076
:10186000C73626E0D20728F0C6E6D6E002C0C5EFAC
:10187000D0E0F8948EE391E00E94AE01BE018EE3C9
:1018800091E00E94B4017894DF91CF910895809106
:101890002A01811115C080912B01811111C02EE008
:1018A0004FE064E170E08EE391E00E94F207F8946B
:1018B00061E086E00E940214789481E080932A011E
:1018C000089580912A01882381F02EE04FE064E1A1
:1018D00070E08EE391E00E94F207F89460E086E009
:1018E0000E940214789410922A010895DF92EF92D8
:1018F000FF920F931F93CF93DF9380912A01811161
:1019000005C080912C01882309F458C0F8948EE01A
:101910000E948013EC018FE00E9480137C01789478
:10192000BE01680F791F7695679580E090E00E9470
:10193000451511E020E030E049E353E40E94F7153B
:1019400087FD10E02FE431E044E650E060E070E015
:10195000812F0E94F201D82E0AE411E024E630E043
:1019600040E050E0B701CE010E942B02882381F0B5
:101970000E94610C80912C01816080932C01DF9189
:10198000CF911F910F91FF90EF90DF900C94E90A97
:10199000DD2069F00E94610C80912C0182608093AF
:1019A0002C010E94E90A81E080932B0107C010926C
:1019B0002C0180912B01811110922B01DF91CF918D
:1019C0001F910F91FF90EF90DF900895CF93CFB7C5
:1019D000F89480915701811127C0EEEBF0E08491DB
:1019E000EAEAF0E09491E82FF0E0EE0FFF1FEE52EC
:1019F000FF4FA591B491EC91E92321F461E08AE0D5
:101A00000E94021461E08AE00E94C6138CB58061D6
:101A10008CBD8CB580648CBD61E08DE00E94C613E6
:101A200061E08BE00E94C613809157018F5F809325
:101A30005701CFBFCF9108959FB7F8948091570178
:101A4000882319F0815080935701809157018111AB
:101A500005C08CB58F7B8CBD109256019FBF089539
:101A60009FB7F894882349F0813011F482E006C0D2
:101A700082E08093560180E001C081E02091550111
:101A8000822B8093550180915601811103C081E022
:101A9000809356019FBF0895909156019230B1F006
:101AA0002FB7F894882321F0813021F482E003C01D
:101AB00081E001C080E08095909155018923809359
:101AC0005501811102C0109256012FBF0895FC01EB
:101AD000918D228D892F90E0805C9F4F821B910910
:101AE0008F7399270895FC01918D828D981731F09D
:101AF000828DE80FF11D858D90E008958FEF9FEFA7
:101B00000895FC01918D828D981761F0828DDF011F
:101B1000A80FB11D5D968C91928D9F5F9F73928FE0
:101B200090E008958FEF9FEF0895FC01538D448D51
:101B3000252F30E0842F90E0821B930B541710F078
:101B4000CF960895019708958BE19FE0892B49F086
:101B500080E090E0892B29F00E941B0F81110C94EA
:101B600000000895FC01848DDF01A80FB11DA35A68
:101B7000BF4F2C91848D90E001968F739927848FAD
:101B8000A689B7892C93A089B1898C9180648C93A4
:101B9000938D848D981306C00288F389E02D80818F
:101BA0008F7D80830895EF92FF920F931F93CF93C1
:101BB000DF93EC0181E0888F9B8D8C8D981305C09D
:101BC000E889F989808185FD24C0F62E0B8D10E00F
:101BD0000F5F1F4F0F731127E02E8C8DE8120CC082
:101BE0000FB607FCFACFE889F989808185FFF5CF28
:101BF000CE010E94B20DF1CF8B8DFE01E80FF11DD9
:101C0000E35AFF4FF0820B8FEA89FB898081806263
:101C100007C0EE89FF896083E889F9898081806443
:101C2000808381E090E0DF91CF911F910F91FF9031
:101C3000EF900895CF93DF93EC01888D8823C9F04E
:101C4000EA89FB89808185FD05C0A889B9898C91C5
:101C500086FD0FC00FB607FCF5CF808185FFF2CF60
:101C6000A889B9898C9185FFEDCFCE010E94B20D74
:101C7000E7CFDF91CF910895CF92DF92EF92FF925D
:101C80001F93CF93DF93EC016A017B01122FE88948
:101C9000F98982E080834115514E61057105B1F0EB
:101CA00060E079E08DE390E0A70196010E946E1656
:101CB000DA01C9010197A109B109B695A7959795D0
:101CC00087959C01211580E13807A8F0E889F989FA
:101CD000108260E874E88EE190E0A70196010E940E
:101CE0006E16DA01C9010197A109B109B695A79548
:101CF000979587959C01EC85FD853083EE85FF8562
:101D00002083188EEC89FD891083EA89FB89808104
:101D100080618083EA89FB89808188608083EA8989
:101D2000FB89808180688083EA89FB8980818F7D3F
:101D30008083DF91CF911F91FF90EF90DF90CF9044
:101D40000895CF93DF93EC01E881F9810680F78154
:101D5000E02D0995EA89FB8980818F7E8083EA895D
:101D6000FB898081877F8083EA89FB8980818F77E7
:101D70008083EA89FB8980818F7D80838A8D898F2A
:101D8000DF91CF9108951F920F920FB60F921124F9
:101D90002F938F939F93EF93FF93E0916901F091BD
:101DA0006A018081E0916F01F091700182FD12C0A3
:101DB0009081809172018F5F8F73209173018217E0
:101DC00051F0E0917201F0E0E75AFE4F958F809359
:101DD000720101C08081FF91EF919F918F912F91AE
:101DE0000F900FBE0F901F9018951F920F920FB675
:101DF0000F9211242F933F934F935F936F937F9391
:101E00008F939F93AF93BF93EF93FF9389E591E0F7
:101E10000E94B20DFF91EF91BF91AF919F918F9171
:101E20007F916F915F914F913F912F910F900FBED6
:101E30000F901F90189589E591E00E94670D21E0B1
:101E4000892B09F420E0822F0895CF92DF92EF9240
:101E5000FF920F931F93CF93DF936C017A018B0155
:101E6000C0E0D0E0CE15DF0581F0D8016D918D0185
:101E7000D601ED91FC910190F081E02DC60109950C
:101E8000892B11F02196EECF7E01C701DF91CF9112
:101E90001F910F91FF90EF90DF90CF900895EF92F8
:101EA000FF920F931F93CF93DF938C017B01C0E0D0
:101EB000D0E0F701EC0FFD1F6491662361F0D801BB
:101EC000ED91FC910190F081E02DC8010995892BDD
:101ED00011F02196EECFCE01DF91CF911F910F919E
:101EE000FF90EF900895DB0114964D915C9115974A
:101EF0006D917C91DC01ED91FC910280F381E02DEC
:101F000009940C947912DC01ED91FC910190F0811F
:101F1000E02D0994DB01ED91FC9111970190F08186
:101F2000E02DBC01CD01099466E171E00C947912B9
:101F30000F931F93CF93DF93EC010E944F0F8C01FF
:101F4000CE010E94940F800F911FDF91CF911F91BE
:101F50000F9108950F931F93CF93DF93EC010E948D
:101F6000730F8C01CE010E94940F800F911FDF919F
:101F7000CF911F910F9108950F931F93CF93DF93EC
:101F8000EC010E9479128C01CE010E94940F800F07
:101F9000911FDF91CF911F910F9108950F931F9380
:101FA000CF93DF93EC010E94830F8C01CE010E943E
:101FB000940F800F911FDF91CF911F910F91089582
:101FC0000F931F93CF93DF93EC010E948A0F8C0134
:101FD000CE010E94940F800F911FDF91CF911F912E
:101FE0000F9108958F929F92AF92BF92EF92FF92BE
:101FF0000F931F93CF93DF93CDB7DEB7A1970FB6A3
:10200000F894DEBF0FBECDBF7C01FA01CB0119A24F
:10201000223008F42AE08E010F5D1F4F822E912C92
:10202000A12CB12CBF01A50194010E946E16F901EB
:10203000CA01015011096A3014F4605D01C0695C85
:10204000D8016C93232B242B252B61F7B801C701F2
:102050000E947912A1960FB6F894DEBF0FBECDBFD5
:10206000DF91CF911F910F91FF90EF90BF90AF90B4
:102070009F908F9008952115310541F4DC01ED9179
:10208000FC910190F081E02D642F09940C94F20FE3
:102090009A01462F50E060E070E00C943B100F93E3
:1020A0001F93CF93DF93EC010E9448108C01CE0167
:1020B0000E94940F800F911FDF91CF911F910F917C
:1020C00008959A01AB0160E070E00C943B100F930F
:1020D0001F93CF93DF93EC010E9461108C01CE011E
:1020E0000E94940F800F911FDF91CF911F910F914C
:1020F00008950F931F93CF93DF93EC010E943B1041
:102100008C01CE010E94940F800F911FDF91CF911F
:102110001F910F910895CF92DF92EF92FF920F934C
:102120001F93CF93DF932115310581F4DC01ED91ED
:10213000FC910190F081E02D642FDF91CF911F91F0
:102140000F91FF90EF90DF90CF9009942A303105E6
:1021500001F577FF1DC06A017B01EC016DE20E9471
:10216000830F8C0144275527BA014C195D096E096C
:102170007F092AE0CE010E94F20F800F911FDF91AC
:10218000CF911F910F91FF90EF90DF90CF90089526
:102190002AE0DF91CF911F910F91FF90EF90DF9098
:1021A000CF900C94F20F9A01AB01770F660B770B6F
:1021B0000C948B100F931F93CF93DF93EC010E942D
:1021C000D3108C01CE010E94940F800F911FDF91DC
:1021D000CF911F910F9108950F931F93CF93DF938A
:1021E000EC010E948B108C01CE010E94940F800F95
:1021F000911FDF91CF911F910F9108957F928F9240
:102200009F92AF92BF92CF92DF92EF92FF920F9385
:102210001F93CF93DF938C016A017B01722E9A0189
:10222000AB01C701B6010E946916882319F069E164
:1022300071E027C046015701E894B7F82FEF3FEF50
:102240004FE75FE7C501B4010E94691681110DC017
:102250002FEF3FEF4FE75FE7C501B4010E949F14E6
:1022600018161CF46DE171E00CC02FEF3FEF4FE743
:102270005FE4C701B6010E94F715181694F461E2F5
:1022800071E0C801DF91CF911F910F91FF90EF9006
:10229000DF90CF90BF90AF909F908F907F900C94E5
:1022A00079122FEF3FEF4FE75FECC701B6010E94B5
:1022B0009F1487FDE4CF20E030E0A901C701B601FB
:1022C0000E949F1487FF0AC06DE2C8010E94830F1D
:1022D000EC01F7FAF094F7F8F09402C0C0E0D0E017
:1022E000B12C60E070E080E09FE37B1441F020E0DF
:1022F00030E040E251E40E94A414B394F6CFA70169
:1023000096010E9433146B017C010E9416154B014B
:102310005C012AE0AB01BC01C8010E94F20FC80FAA
:10232000D91F7720B9F1C501B4010E9445159B0161
:10233000AC01C701B6010E9432146B017C016EE250
:10234000C8010E94830FC80FD91F20E030E040E28F
:1023500051E4C701B6010E94FC154B015C010E94CB
:1023600016156B017C014AE050E0C8010E94611023
:10237000C80FD91FB60180E090E00E9445159B016F
:10238000AC01C501B4010E9432146B017C017A9446
:102390007110DBCFCE01DF91CF911F910F91FF9094
:1023A000EF90DF90CF90BF90AF909F908F907F90F5
:1023B00008950C94FE100F931F93CF93DF93EC01BD
:1023C0000E94FE108C01CE010E94940F800F911F7D
:1023D000DF91CF911F910F9108958EBD00000DB434
:1023E00007FEFDCF8EB508959CB59C7F282F2370E6
:1023F000922B9CBD2DB582FB992790F9822F8E7F61
:10240000892B8DBD089520915601222399F04FB755
:10241000F89420915601213059F42DB320935401A2
:102420003DB320915501209523232DBB4FBF02C002
:10243000409354018CBD9DBD089580915601882321
:1024400061F09FB7F894209156018091540121309A
:1024500019F48DBB9FBF08958FBF08950E949A0005
:102460000E94490A0E944F0A0E94720A0E94AD0A05
:102470000E94200B0E94760CFBCF2FEF3FEF49E02C
:1024800050E066E070E08EE391E00E949C006AE01C
:102490008DE291E00C948005E9E5F1E0138212826F
:1024A00088EE93E0A0E0B0E084839583A683B783B1
:1024B00088E091E09183808385EC90E09587848724
:1024C00084EC90E09787868780EC90E0918B808BFE
:1024D00081EC90E0938B828B82EC90E0958B848BE7
:1024E00086EC90E0978B868B118E128E138E148E55
:1024F00008956115710579F0FB0101900020E9F75D
:102500003197AF01461B570BDC01ED91FC91028026
:10251000F381E02D099480E090E008951F920F92DE
:102520000FB60F9211242F933F938F939F93AF93E6
:10253000BF938091F7019091F801A091F901B091BA
:10254000FA013091F60123E0230F2D3720F4019694
:10255000A11DB11D05C026E8230F0296A11DB11DC6
:102560002093F6018093F7019093F801A093F9016D
:10257000B093FA018091FB019091FC01A091FD01C3
:10258000B091FE010196A11DB11D8093FB019093B6
:10259000FC01A093FD01B093FE01BF91AF919F910B
:1025A0008F913F912F910F900FBE0F901F90189514
:1025B0002FB7F8946091F7017091F8018091F901BB
:1025C0009091FA012FBF08953FB7F8948091FB01D5
:1025D0009091FC01A091FD01B091FE0126B5A89B50
:1025E00005C02F3F19F00196A11DB11D3FBFBA2FA5
:1025F000A92F982F8827820F911DA11DB11DBC0105
:10260000CD0142E0660F771F881F991F4A95D1F7C9
:1026100008958F929F92AF92BF92CF92DF92EF92E6
:10262000FF926B017C010E94E4124B015C01C1141A
:10263000D104E104F10401F10E9431140E94E4127A
:10264000DC01CB0188199909AA09BB09883E93408E
:10265000A105B10560F321E0C21AD108E108F10833
:1026600088EE880E83E0981EA11CB11CC114D10411
:10267000E104F10419F7DBCFFF90EF90DF90CF90EA
:10268000BF90AF909F908F900895789484B58260AA
:1026900084BD84B5816084BD85B5826085BD85B506
:1026A000816085BDEEE6F0E0808181608083E1E8B5
:1026B000F0E01082808182608083808181608083ED
:1026C000E0E8F0E0808181608083E1EBF0E08081F0
:1026D00084608083E0EBF0E0808181608083EAE7C2
:1026E000F0E080818460808380818260808380814B
:1026F000816080838081806880831092C10008950A
:102700008E3008F08E502091000190E4299F9001B6
:1027100011248770822B80937C0080917A008064E2
:1027200080937A0080917A0086FDFCCF80917800BA
:102730002091790090E0922B0895833081F028F465
:10274000813099F08230A1F008958730A9F0883067
:10275000B9F08430D1F4809180008F7D03C08091E6
:1027600080008F7780938000089584B58F7702C0B2
:1027700084B58F7D84BD08958091B0008F7703C0AC
:102780008091B0008F7D8093B0000895CF93DF9348
:1027900090E0FC01E056FF4F2491FC01EC54FF4F08
:1027A0008491882361F190E0880F991FFC01EE521B
:1027B000FF4FC591D491FC01E853FF4FA591B4910F
:1027C000611109C09FB7F89488812095822388837E
:1027D000EC912E230BC0623061F49FB7F89488818E
:1027E000322F309583238883EC912E2B2C939FBF1F
:1027F00006C08FB7F894E8812E2B28838FBFDF9116
:10280000CF9108951F93CF93DF93282F30E0F901E4
:10281000E457FF4F8491F901E056FF4FD491F9013D
:10282000EC54FF4FC491CC23C1F0162F81110E94AC
:102830009D13EC2FF0E0EE0FFF1FE853FF4FA59123
:10284000B4919FB7F894111104C08C91D095D823FE
:1028500002C0EC91DE2BDC939FBFDF91CF911F91E3
:10286000089508955058BB27AA270E944A140C9433
:10287000BD150E94AF1538F00E94B61520F039F44E
:102880009F3F19F426F40C94AC150EF4E095E7FB89
:102890000C94A615E92F0E94CE1558F3BA176207BB
:1028A00073078407950720F079F4A6F50C94F015CA
:1028B0000EF4E0950B2EBA2FA02D0B01B90190015B
:1028C0000C01CA01A0011124FF27591B99F0593F9F
:1028D00050F4503E68F11A16F040A22F232F342FE7
:1028E0004427585FF3CF469537952795A795F04035
:1028F0005395C9F77EF41F16BA0B620B730B840B4A
:10290000BAF09150A1F0FF0FBB1F661F771F881F01
:10291000C2F70EC0BA0F621F731F841F48F4879559
:1029200077956795B795F7959E3F08F0B0CF93954B
:10293000880F08F09927EE0F9795879508950E94C4
:10294000821508F481E008950E94B8140C94BD1516
:102950000E94B61558F00E94AF1540F029F45F3F71
:1029600029F00C94A61551110C94F1150C94AC158A
:102970000E94CE1568F39923B1F3552391F3951B6B
:10298000550BBB27AA2762177307840738F09F5F90
:102990005F4F220F331F441FAA1FA9F335D00E2EFD
:1029A0003AF0E0E832D091505040E695001CCAF76A
:1029B0002BD0FE2F29D0660F771F881FBB1F26172D
:1029C00037074807AB07B0E809F0BB0B802DBF0104
:1029D000FF2793585F4F3AF09E3F510578F00C94D3
:1029E000A6150C94F1155F3FE4F3983ED4F3869559
:1029F00077956795B795F7959F5FC9F7880F911DF4
:102A00009695879597F90895E1E0660F771F881FDF
:102A1000BB1F621773078407BA0720F0621B730B92
:102A2000840BBA0BEE1F88F7E09508950E94D61527
:102A300088F09F5798F0B92F9927B751B0F0E1F07F
:102A4000660F771F881F991F1AF0BA95C9F714C02F
:102A5000B13091F00E94F015B1E008950C94F0159A
:102A6000672F782F8827B85F39F0B93FCCF3869568
:102A700077956795B395D9F73EF4909580957095C5
:102A800061957F4F8F4F9F4F0895E89409C097FB42
:102A90003EF490958095709561957F4F8F4F9F4F35
:102AA0009923A9F0F92F96E9BB279395F695879579
:102AB00077956795B795F111F8CFFAF4BB0F11F43C
:102AC00060FF1BC06F5F7F4F8F4F9F4F16C08823E3
:102AD00011F096E911C0772321F09EE8872F762F19
:102AE00005C0662371F096E8862F70E060E02AF05A
:102AF0009A95660F771F881FDAF7880F9695879546
:102B000097F90895990F0008550FAA0BE0E8FEEF1A
:102B100016161706E807F907C0F012161306E407A1
:102B2000F50798F0621B730B840B950B39F40A269A
:102B300061F0232B242B252B21F408950A2609F478
:102B4000A140A6958FEF811D811D089597F99F677C
:102B500080E870E060E008959FEF80EC0895002425
:102B60000A941616170618060906089500240A94F2
:102B700012161306140605060895092E0394000C78
:102B800011F4882352F0BB0F40F4BF2B11F460FF07
:102B900004C06F5F7F4F8F4F9F4F089557FD905830
:102BA000440F551F59F05F3F71F04795880F97FB11
:102BB000991F61F09F3F79F08795089512161306CB
:102BC0001406551FF2CF4695F1DF08C016161706FA
:102BD0001806991FF1CF869571056105089408952F
:102BE000E894BB2766277727CB0197F908950E94C1
:102BF000821508F48FEF08950E940F160C94BD15EE
:102C00000E94AF1538F00E94B61520F0952311F000
:102C10000C94A6150C94AC1511240C94F1150E947B
:102C2000CE1570F3959FC1F3950F50E0551F629F2D
:102C3000F001729FBB27F00DB11D639FAA27F00D15
:102C4000B11DAA1F649F6627B00DA11D661F829F3C
:102C50002227B00DA11D621F739FB00DA11D621F21
:102C6000839FA00D611D221F749F3327A00D611D3E
:102C7000231F849F600D211D822F762F6A2F112420
:102C80009F5750409AF0F1F088234AF0EE0FFF1F53
:102C9000BB1F661F771F881F91505040A9F79E3FAA
:102CA000510580F00C94A6150C94F1155F3FE4F3E8
:102CB000983ED4F3869577956795B795F795E79500
:102CC0009F5FC1F7FE2B880F911D9695879597F909
:102CD00008950E948215880B990B0895A1E21A2E7F
:102CE000AA1BBB1BFD010DC0AA1FBB1FEE1FFF1FB0
:102CF000A217B307E407F50720F0A21BB30BE40B00
:102D0000F50B661F771F881F991F1A9469F7609546
:102D10007095809590959B01AC01BD01CF01089500
:102D2000052E97FB1EF400940E94A71657FD07D0AE
:102D30000E946E1607FC03D04EF40C94A716509513
:102D40004095309521953F4F4F4F5F4F0895909597
:102D50008095709561957F4F8F4F9F4F0895EE0F2F
:0E2D6000FF1F0590F491E02D0994F894FFCF29
:102D6E000130405000000000D30D250F950D1A0EB6
:102D7E00670D810D730D0D0A006E616E00696E6632
:062D8E00006F76660000F4
:00000001FF
